:040000006F00106F0E
:10000400000000000000000090000020D009002043
:10001400A9BDF9F5900000200000000000000000D8
:10002400900000209000002000000000000000006C
:10003400900000200000000090000020000000005C
:1000440090000020900000209000002090000020EC
:1000540090000020900000209000002090000020DC
:1000640090000020900000209000002092000020CA
:1000740090000020900000202C010020900000201F
:1000840090000020900000209000002090000020AC
:1000940001A037370040834747409946BD8B638AA8
:1000A400D702314741116380E70611476390E702A5
:1000B400A307010037370040938641818347F1004D
:1000C40017160000034606E46319F60041017300A5
:1000D400203083475740730020308347F1000346A4
:1000E4008740B6972380C7008347F100B69783C73C
:1000F40007002304F7408347F100850793F7F70FC0
:10010400A307F10065BF13854181971000E0E780E4
:10011400C0121375F50FA307A1008345F1001385E1
:100124004181971000E0E780C00E4DB7411122C60F
:1001340026C44AC2971000E0E780E0009317F50058
:100144002A849374054063DA072A9377150089CBD0
:1001540017150000034565DB971000E0E78020FDDC
:100164009317D40063D00712B70704009387670876
:10017400E18FB1C39717000083C7F7D817170000A2
:10018400034787D863F1E70A971700009387B7D727
:1001940083C7070093F7F70F13871700971600001C
:1001A400A383E6D613878187BA9703C50700971000
:1001B40000E0E780C0F78DC4370500101305054043
:1001C400971000E0E78080F98D4717170000A30B14
:1001D400F7D2054523850180971000E0E78000EF02
:1001E400937704108DC313050010971000E0E78087
:1001F400E0F60545971000E0E78040ED95471717B6
:100204000000A301F7D093770420638D072413051E
:100214000020971000E0E78060F491471717000072
:10022400A302F7CE81A49717000083C7F7CD89CB2B
:10023400054523850180971000E0E78020E9A5BFEC
:10024400854781451305004017170000230DF7CAA1
:10025400971000E0E780C0EB81451305002097105C
:1002640000E0E780E0EA814513050010971000E004
:10027400E78000EA0545971000E0E78000E3238566
:10028400018015BF9377240099CB9717000083C78B
:10029400A7C7E5C30545971000E0E78040E59377DD
:1002A4000404B9C3171900000349F9C593071900D9
:1002B40017170000A309F7C4971000E0E780C0E710
:1002C40093878187CA972380A700171700000347E5
:1002D400A7C39717000083C717C363F5E70A05454B
:1002E400971000E0E780A0E0E38C04EE37050010EF
:1002F40013050540971000E0E78040E697140000DE
:1003040083C474C09387140017170000A30DF7BEAD
:10031400971000E0E78040E293878187A6972380C7
:10032400A7009717000083C737BEE39407EA854701
:10033400814513050040171700002306F7BC9710EA
:1003440000E0E780E0DC814513050020971000E021
:10035400E78000DC814513050010971000E0E7807A
:1003640020DB0545971000E0E78020D42385018039
:1003740085BD0145971000E0E78060D78547A385D8
:10038400F18031BF0145971000E0E78040D683C774
:10039400B180A5C3A38501809717000083C7D7B692
:1003A40089CB0545971000E0E78040D22385018082
:1003B40025BF854781451305004017170000230416
:1003C400F7B4971000E0E780A0D48145130500201E
:1003D400971000E0E780C0D3814513050010971003
:1003E40000E0E780E0D20545971000E0E780E0CB2D
:1003F40075BF8547A385F180C5BD937725008DCB57
:10040400B707040093870708E98FE1CF9147238555
:10041400F18023840180A38401809387C1809C435D
:1004240081CB9C4391C7938591801385818B82975F
:100434009317D40063DF070E0545971000E0E780AB
:1004440000CBC5C83705001013050540971000E020
:10045400E780C0D00545971000E0E78040C901441B
:1004640023850180056513050580B377A40091CB2E
:10047400971000E0E78080CE994717170000A30388
:10048400F7A89317340163DC07000565971000E0B3
:10049400E780C0CC9D4717170000A305F7A6931764
:1004A400140163DC07001165971000E0E78000CBBE
:1004B400A14717170000A307F7A49317040163DCEF
:1004C40007002165971000E0E78040C9A54717178A
:1004D4000000A309F7A23244A24412494101730067
:1004E40020308D472385F18097170000A38F07A044
:1004F40081B793774408E38507CE83C7818003C718
:1005040091801305F00F63F1E7029387818083C71D
:10051400070093F7F70F138717002384E1801387ED
:10052400818BBA9703C50700971000E0E78020C0CD
:1005340045B993770404A9C7171700000347F79C2C
:10054400FD47014563EAE702971700009387F79B8D
:1005540003C907001379F90F93071900171700004F
:10056400A305F79A971000E0E78000BD938781897F
:100574003E992300A9000545971000E0E78020B7C5
:100584009377040195CB375700408357078093E74F
:1005940017002310F7809387C1809C4391CBDC43E1
:1005A40081CB9715000083C5559613858189829761
:1005B40097170000A38B0794E38404C23705001047
:1005C40013050540971000E0E78040B905459710F2
:1005D40000E0E780C0B129B173270080218B9387A5
:1005E400018109CB7327008023A8E18098435D9B98
:1005F400731007800100010037170040930670054F
:100604002300D704930680FA2300D70401000100D5
:100614008346B70493F6F60DA305D7042300070415
:10062400732600809443A18AD18E7390068023A8F8
:1006340001800100010093760502638406180347D4
:10064400A700118B25E773270080218B09CB732723
:10065400008023A8E18098435D9B7310078001000C
:10066400010037170040930670052300D704930652
:1006740080FA2300D704010001008346A70093E613
:1006840046002305D70023000704F326008098437F
:10069400218B558F7310078023A80180010001006E
:1006A4001307004B010001007D176DFF73270080C5
:1006B400218B09CB7327008023A8E18098435D9B9D
:1006C400731007800100010037170040930670057E
:1006D4002300D704930680FA2300D7040100010005
:1006E4007D892314A70001000100010001002300FB
:1006F4000704F32600809843218B558F73100780DD
:1007040023A801800100010073270080218B09CBFD
:100714007327008023A8E18098435D9B73100780B2
:100724000100010037170040930670052300D70429
:10073400930680FA2300D7040100010001000100A0
:10074400B726004013061005A383C68023000704C0
:10075400F32600809843218B558F7310078023A8BC
:1007640001800100010073270080218B09CB7327CE
:10077400008023A8E18098435D9B731007800100EB
:10078400010037170040930670052300D704930631
:1007940080FA2300D704010001008346B70493E6DE
:1007A4000608A305D70423000704732700809C438D
:1007B400A18BD98F7390078023A8018001000100C9
:1007C400828093760504638B06140347A700418B4C
:1007D40025E773270080218B09CB7327008023A88A
:1007E400E18098435D9B7310078001000100371777
:1007F4000040930670052300D704930680FA230073
:10080400D704010001008346A70093E606012305EF
:10081400D70023000704F32600809843218B558FCB
:100824007310078023A80180010001001307007DD5
:10083400010001007D176DFF73270080218B09CB18
:100844007327008023A8E18098435D9B7310078081
:100854000100010037170040930670052300D704F8
:10086400930680FA2300D704010001009376F50172
:1008740093E606042314D7000100010001000100DF
:1008840023000704F32600809843218B558F7310AF
:10089400078023A80180010001001307600463108E
:1008A400E50473270080218B09CB7327008023A8DC
:1008B400E18098435D9B73100780010001003717A6
:1008C4000040930670052300D704930680FA2300A2
:1008D400D70401000100B72600400946B5B57327C7
:1008E4000080218B09CB7327008023A8E1809843E3
:1008F4005D9B7310078001000100371700409306C9
:1009040070052300D704930680FA2300D70401005E
:100914000100B7260040130620053DB5732700806B
:10092400218B09CB7327008023A8E18098435D9B2A
:10093400731007800100010037170040930670050B
:100944002300D704930680FA2300D7040100010092
:100954008356870093E6060C2314D700C5BB4111C8
:10096400814601468145114506C6192CF3270080AE
:10097400A18B9386018189CBF327008023A8F18082
:100984009C42DD9B7390078001000100B717004073
:10099400130770052380E704130780FA2380E70414
:1009A4000100010003C76704136717002383E704EA
:1009B40023800704732700809C42A18BD98F7390F6
:1009C400078023A8018001000100B2404101828018
:1009D40081460146814511456522F3270080A18B9C
:1009E4001387018189CBF327008023A8F1801C435E
:1009F400DD9B7390078001000100B7170040930648
:100A040070052380D704930680FA2380D70401005D
:100A14000100FD562396D70223800704F3260080A5
:100A24001C43A18BD58F7390078023A801800100FC
:100A34000100F3270080A18B89CBF327008023A832
:100A4400F1801C43DD9B7390078001000100B71700
:100A54000040930670052380D704930680FA238010
:100A6400D7040100010083C6670493E616002383BC
:100A7400D70423800704F32600801C43A18BD58F61
:100A84007390078023A801800100010001A0BD47E5
:100A94003305F50201007D1575FD8280411122C4E4
:100AA40026C206C6AA84014463179400B2402244B5
:100AB40092444101828005041305803E4204C13FF3
:100AC4004180DDB72303048015472303E48001003C
:100AD4002302A480828083076480E3CE07FE23037D
:100AE4000480828083076480E3CE07FE034544804C
:100AF400828083076480E3CE07FE2302A480828081
:100B0400411126C44AC24EC006C61377F50BAD4741
:100B1400AA892E8995446306F70019456537653F10
:100B24008D444E854537FD59FD1463983401B24018
:100B3400A244124982494101828013550901137567
:100B4400F50F453F2209CDB7011126CC06CEB704D7
:100B5400080051371545BD37713769372AC6A53F97
:100B640032459377150089EB136515001375F50F5E
:100B7400F240E24405618280FD14E9FC0145CDBFE9
:100B8400397126DC4ADA4ED852D656D45AD25ED0BF
:100B940006DE62CE66CCB7E700E07D5783AA070085
:100BA40022C603AA470023A0E71823A2E718B71711
:100BB4000040130770052380E704130780FA23809D
:100BC400E70483C74704930B75FFB684E20793FBDE
:100BD400FB0F8546AA892E8B328937240040E18792
:100BE400015763FA76016308D500894613070002AA
:100BF4006313D5000157D98F93F7F70FB71C004043
:100C04002382FC0411472303E4801305F00F5D3DA8
:100C1400094CD135636D7C11B7050700DA95378728
:100C24000700795563F2E504B3879500636EF70214
:100C3400370B0800A94733EB65016399F90689E48A
:100C44008144513D26850DA0DA850945553D0509A8
:100C54000345F9FFFD14050B693D81C49377FB0F30
:100C6400FDF7DD3569FD7D55B717004013077005A5
:100C74002380E704130780FA2380E70403C74704AB
:100C8400418B2382E704F250B7E700E023A0571119
:100C940023A24711E25432445259C259325AA25A39
:100CA400125B825B724CE24C21618280A5476395A2
:100CB400F90685691309F00FB3069900B3742B0183
:100CC400B6941349F9FFB3749900856B33796901BC
:100CD400416B9387F9FFB3F7270199E363FC340170
:100CE40093D94900C147E3E637FF99BF0569C16954
:100CF4007D19D9B71305800D6388690113050002B6
:100D04006384790113051008CA85DD3B353D21DD77
:100D14004E99B3843441D9B7DA852D45D533CA9475
:100D2400E30099F205097D3BA30FA9FED5BF938784
:100D3400F9FF93F7F70F6361FC0C83C71C041307D7
:100D44003008631FF70437070800636BEB04B3072D
:100D54009B00B706100063F5D704334BEB008947BB
:100D64006393F9068980D549E38C04ECDA85094557
:100D7400413B11090327C9FF91472320E48003075E
:100D84006480E34E07FE23033481FD17EDFBFD145D
:100D9400110B81C49377FB0FE9FF7D3371F5E1B546
:100DA400B717004003C75704B707080013770702B3
:100DB40019E3B78707007955E378FBEA33079B000B
:100DC400E3FFE7F855B58547E382F9F2DA852D4567
:100DD400053B9389F4FFE38504E6293393F739004F
:100DE40091EB832604800327090093074900E39AC3
:100DF400E6E43E89CE84F1BFB5476396F900130556
:100E0400900BC93135BDB1471305B00AE38BF9FE28
:100E140099476391F904B7050800B365BB002D45F4
:100E2400C53181448D4BA14975396396740183277B
:100E340004802320F9008504E39834FF8327048089
:100E440013172B01635507002312F900D5BB232286
:100E5400F900FDB39D476399F90281451305B00478
:100E64004531BD442320090023220900FD599D3941
:100E740093F77400CA9703C70700FD14398D2380C4
:100E8400A700E39634FF6DBBA1476392F9046D3963
:100E94008144630D0B008D479304C0036308FB007A
:100EA4009304000563048B01930440041375C50780
:100EB400E30895D819453931393905452131268555
:100EC4000D3909453D314931E31C05D669BB9147CC
:100ED4006399F90013056006F536F53E130590098C
:0C0EE4000DB7E38F09D4F154A9BB000046
:100EF0009711002093810181177100201301811047
:100F00001305400097F5FF1F9385C50F17060020B6
:100F1000130606FE63FAC5008322050023A05500D0
:100F200011059105E3EAC5FE170500001305C53458
:100F3000970500209385C5FB17060020130686FC45
:100F400063FAC5008322050023A055001105910511
:100F5000E3EAC5FE170500201305C5FA9385818DC8
:100F60006377B500232005001105E36DB5FEFD4252
:100F7000739002BC8D4273904280930280087390FC
:100F8000023097F2FF1F9382E20793E232007390E0
:100F90005230970200009382A203739012347300C0
:100FA00020304111D14517050020130565F422C4F6
:100FB00006C613844181A12C13854181AD2C937702
:100FC000F50FFDDBBE8522859924FDB74111130580
:100FD000800406C697F0FF1FE78040603717004087
:100FE0008327870A85451305001093E707202324EC
:100FF000F70A39208D45130500201920C5225537E1
:10100000914763EEB702170700001307A7258A056B
:10101000BA959C41BA978287B717004003A7470B40
:101020001345F5FF698F23AAE70A03A7070B698F0A
:1010300023A8E70A03A7070A798D23A0A70A8280BD
:10104000B717004083A6470B1347F5FFF98E23AA75
:10105000D70A83A6070B558D23A8A70A83A6070ADC
:10106000758F23A0E70A8280B717004003A7470BBC
:10107000498F23AAE70A03A7070B1345F5FF45BFCE
:10108000B717004083A6470B1347F5FF758F23AAB8
:10109000E70A03A7070A598D4DB7B717004003A702
:1010A000470B498FEDB7375700408357078011C56D
:1010B00093E707102310F7808280C207C18393F75C
:1010C000F7EFC207C183FDB737570040835707804A
:1010D00011C593E707202310F7808280C207C183E0
:1010E00093F7F7DFC207C183FDB737570040835737
:1010F000078011C593E707402310F7808280C2075D
:10110000C18393F7F7BFC207C183FDB7B75700404C
:1011100003D747804205418189C5598D2392A78015
:1011200082801345F5FF798DD5BFB75700402398CE
:10113000A7808280B757004003D507811375F50F4C
:101140008280B757004003D7478103D58781420586
:10115000598D2205218182801345F5FF4205418189
:10116000B7570040239AA7808280B717004003D565
:101170008700420541819377050491EB9377F50150
:101180003755E801130505803345F50282809377D2
:10119000050C130700046397E7009377F5013745C3
:1011A0009C1CCDB72165130505D08280411122C456
:1011B00006C62A845D3F2947B307E502B2408D8306
:1011C000B3D7870222449507B3D7E70237370040E9
:1011D000C207C1832316F740410182807165411126
:1011E0001305052006C6D937B7370040130770F836
:1011F0002381E7400D47A381E74013070004A38044
:10120000E74005472387E740B24041018280B73776
:1012100000402147B736004091E1828003C6B740C5
:10122000E30CC7FE05050346F5FFFD15C205238443
:10123000C640C181D5B78147B736004003C7A64035
:101240001396070141821377F70F19E332858280E5
:1012500003C686403307F50085072300C700F9BFA2
:10126000B8FDFFFFE0FDFFFF08FEFFFF20FEFFFFD0
:041270003AFEFFFF44
:1012740054686973206973206120747820657861EB
:041284006D0D0A00E2
:00000001FF
